{
  "_format": "hh-sol-artifact-1",
  "contractName": "Twitter",
  "sourceName": "contracts/Twitter.sol",
  "abi": [
    {
      "inputs": [],
      "stateMutability": "nonpayable",
      "type": "constructor"
    },
    {
      "anonymous": false,
      "inputs": [
        {
          "indexed": false,
          "internalType": "address",
          "name": "twitter",
          "type": "address"
        },
        {
          "indexed": false,
          "internalType": "uint256",
          "name": "id",
          "type": "uint256"
        },
        {
          "indexed": false,
          "internalType": "string",
          "name": "tweetText",
          "type": "string"
        },
        {
          "indexed": false,
          "internalType": "string",
          "name": "tweetImgUrl",
          "type": "string"
        },
        {
          "indexed": false,
          "internalType": "bool",
          "name": "isDeleted",
          "type": "bool"
        },
        {
          "indexed": false,
          "internalType": "uint256",
          "name": "timestamp",
          "type": "uint256"
        }
      ],
      "name": "TweetCreated",
      "type": "event"
    },
    {
      "anonymous": false,
      "inputs": [
        {
          "indexed": false,
          "internalType": "uint256",
          "name": "id",
          "type": "uint256"
        },
        {
          "indexed": false,
          "internalType": "bool",
          "name": "isDeleted",
          "type": "bool"
        }
      ],
      "name": "TweetDeleted",
      "type": "event"
    },
    {
      "inputs": [
        {
          "internalType": "string",
          "name": "_tweetText",
          "type": "string"
        },
        {
          "internalType": "string",
          "name": "_tweetImgUrl",
          "type": "string"
        }
      ],
      "name": "addTweet",
      "outputs": [],
      "stateMutability": "payable",
      "type": "function"
    },
    {
      "inputs": [
        {
          "internalType": "uint256",
          "name": "tweetId",
          "type": "uint256"
        },
        {
          "internalType": "bool",
          "name": "_isDeleted",
          "type": "bool"
        }
      ],
      "name": "deleteTweet",
      "outputs": [],
      "stateMutability": "nonpayable",
      "type": "function"
    },
    {
      "inputs": [],
      "name": "fetchAllTweets",
      "outputs": [
        {
          "components": [
            {
              "internalType": "address",
              "name": "twitter",
              "type": "address"
            },
            {
              "internalType": "uint256",
              "name": "id",
              "type": "uint256"
            },
            {
              "internalType": "string",
              "name": "tweetText",
              "type": "string"
            },
            {
              "internalType": "string",
              "name": "tweetImgUrl",
              "type": "string"
            },
            {
              "internalType": "bool",
              "name": "isDeleted",
              "type": "bool"
            },
            {
              "internalType": "uint256",
              "name": "timestamp",
              "type": "uint256"
            }
          ],
          "internalType": "struct Twitter.Tweet[]",
          "name": "",
          "type": "tuple[]"
        }
      ],
      "stateMutability": "view",
      "type": "function"
    },
    {
      "inputs": [],
      "name": "getMyTweets",
      "outputs": [
        {
          "components": [
            {
              "internalType": "address",
              "name": "twitter",
              "type": "address"
            },
            {
              "internalType": "uint256",
              "name": "id",
              "type": "uint256"
            },
            {
              "internalType": "string",
              "name": "tweetText",
              "type": "string"
            },
            {
              "internalType": "string",
              "name": "tweetImgUrl",
              "type": "string"
            },
            {
              "internalType": "bool",
              "name": "isDeleted",
              "type": "bool"
            },
            {
              "internalType": "uint256",
              "name": "timestamp",
              "type": "uint256"
            }
          ],
          "internalType": "struct Twitter.Tweet[]",
          "name": "",
          "type": "tuple[]"
        }
      ],
      "stateMutability": "view",
      "type": "function"
    },
    {
      "inputs": [
        {
          "internalType": "uint256",
          "name": "tweetId",
          "type": "uint256"
        }
      ],
      "name": "getTweet",
      "outputs": [
        {
          "internalType": "string",
          "name": "",
          "type": "string"
        },
        {
          "internalType": "string",
          "name": "",
          "type": "string"
        },
        {
          "internalType": "address",
          "name": "",
          "type": "address"
        }
      ],
      "stateMutability": "view",
      "type": "function"
    },
    {
      "inputs": [
        {
          "internalType": "address",
          "name": "_userAddress",
          "type": "address"
        }
      ],
      "name": "getUser",
      "outputs": [
        {
          "components": [
            {
              "internalType": "string",
              "name": "username",
              "type": "string"
            },
            {
              "internalType": "string",
              "name": "bio",
              "type": "string"
            },
            {
              "internalType": "string",
              "name": "profileImgUrl",
              "type": "string"
            },
            {
              "internalType": "string",
              "name": "profileBannerUrl",
              "type": "string"
            }
          ],
          "internalType": "struct Twitter.User",
          "name": "",
          "type": "tuple"
        }
      ],
      "stateMutability": "view",
      "type": "function"
    },
    {
      "inputs": [],
      "name": "owner",
      "outputs": [
        {
          "internalType": "address",
          "name": "",
          "type": "address"
        }
      ],
      "stateMutability": "view",
      "type": "function"
    },
    {
      "inputs": [
        {
          "internalType": "string",
          "name": "_username",
          "type": "string"
        },
        {
          "internalType": "string",
          "name": "_bio",
          "type": "string"
        },
        {
          "internalType": "string",
          "name": "_profileImgUrl",
          "type": "string"
        },
        {
          "internalType": "string",
          "name": "_profilebannerUrl",
          "type": "string"
        }
      ],
      "name": "updateUser",
      "outputs": [],
      "stateMutability": "nonpayable",
      "type": "function"
    }
  ],
  "bytecode": "0x608060405234801561001057600080fd5b50336000806101000a81548173ffffffffffffffffffffffffffffffffffffffff021916908373ffffffffffffffffffffffffffffffffffffffff1602179055506000600181905550612421806100686000396000f3fe60806040526004361061007b5760003560e01c8063aefedbc21161004e578063aefedbc21461012f578063b5c24a011461015a578063c3ad5ecb14610183578063f0312a37146101c25761007b565b80630af6e60f146100805780636f77926b146100ab5780637e75b408146100e85780638da5cb5b14610104575b600080fd5b34801561008c57600080fd5b506100956101eb565b6040516100a291906117d8565b60405180910390f35b3480156100b757600080fd5b506100d260048036038101906100cd919061183a565b6106f1565b6040516100df91906118df565b60405180910390f35b61010260048036038101906100fd9190611a36565b610992565b005b34801561011057600080fd5b50610119610bbb565b6040516101269190611abd565b60405180910390f35b34801561013b57600080fd5b50610144610bdf565b60405161015191906117d8565b60405180910390f35b34801561016657600080fd5b50610181600480360381019061017c9190611ad8565b611153565b005b34801561018f57600080fd5b506101aa60048036038101906101a59190611bdb565b6111e5565b6040516101b993929190611c52565b60405180910390f35b3480156101ce57600080fd5b506101e960048036038101906101e49190611cc3565b6113fc565b005b6060600060015467ffffffffffffffff81111561020b5761020a61190b565b5b60405190808252806020026020018201604052801561024457816020015b61023161150b565b8152602001906001900390816102295790505b5090506000805b60015481101561048b57600015156002600083815260200190815260200160002060040160009054906101000a900460ff1615150361047857600260008281526020019081526020016000206040518060c00160405290816000820160009054906101000a900473ffffffffffffffffffffffffffffffffffffffff1673ffffffffffffffffffffffffffffffffffffffff1673ffffffffffffffffffffffffffffffffffffffff1681526020016001820154815260200160028201805461031290611d32565b80601f016020809104026020016040519081016040528092919081815260200182805461033e90611d32565b801561038b5780601f106103605761010080835404028352916020019161038b565b820191906000526020600020905b81548152906001019060200180831161036e57829003601f168201915b505050505081526020016003820180546103a490611d32565b80601f01602080910402602001604051908101604052809291908181526020018280546103d090611d32565b801561041d5780601f106103f25761010080835404028352916020019161041d565b820191906000526020600020905b81548152906001019060200180831161040057829003601f168201915b505050505081526020016004820160009054906101000a900460ff1615151515815260200160058201548152505083838151811061045e5761045d611d63565b5b6020026020010181905250818061047490611dc1565b9250505b808061048390611dc1565b91505061024b565b5060008167ffffffffffffffff8111156104a8576104a761190b565b5b6040519080825280602002602001820160405280156104e157816020015b6104ce61150b565b8152602001906001900390816104c65790505b50905060005b828110156106e757600260008281526020019081526020016000206040518060c00160405290816000820160009054906101000a900473ffffffffffffffffffffffffffffffffffffffff1673ffffffffffffffffffffffffffffffffffffffff1673ffffffffffffffffffffffffffffffffffffffff1681526020016001820154815260200160028201805461057d90611d32565b80601f01602080910402602001604051908101604052809291908181526020018280546105a990611d32565b80156105f65780601f106105cb576101008083540402835291602001916105f6565b820191906000526020600020905b8154815290600101906020018083116105d957829003601f168201915b5050505050815260200160038201805461060f90611d32565b80601f016020809104026020016040519081016040528092919081815260200182805461063b90611d32565b80156106885780601f1061065d57610100808354040283529160200191610688565b820191906000526020600020905b81548152906001019060200180831161066b57829003601f168201915b505050505081526020016004820160009054906101000a900460ff161515151581526020016005820154815250508282815181106106c9576106c8611d63565b5b602002602001018190525080806106df90611dc1565b9150506104e7565b5080935050505090565b6106f9611559565b600360008373ffffffffffffffffffffffffffffffffffffffff1673ffffffffffffffffffffffffffffffffffffffff16815260200190815260200160002060405180608001604052908160008201805461075390611d32565b80601f016020809104026020016040519081016040528092919081815260200182805461077f90611d32565b80156107cc5780601f106107a1576101008083540402835291602001916107cc565b820191906000526020600020905b8154815290600101906020018083116107af57829003601f168201915b505050505081526020016001820180546107e590611d32565b80601f016020809104026020016040519081016040528092919081815260200182805461081190611d32565b801561085e5780601f106108335761010080835404028352916020019161085e565b820191906000526020600020905b81548152906001019060200180831161084157829003601f168201915b5050505050815260200160028201805461087790611d32565b80601f01602080910402602001604051908101604052809291908181526020018280546108a390611d32565b80156108f05780601f106108c5576101008083540402835291602001916108f0565b820191906000526020600020905b8154815290600101906020018083116108d357829003601f168201915b5050505050815260200160038201805461090990611d32565b80601f016020809104026020016040519081016040528092919081815260200182805461093590611d32565b80156109825780601f1061095757610100808354040283529160200191610982565b820191906000526020600020905b81548152906001019060200180831161096557829003601f168201915b5050505050815250509050919050565b662386f26fc1000034146109db576040517f08c379a00000000000000000000000000000000000000000000000000000000081526004016109d290611e7b565b60405180910390fd5b6000600260006001548152602001908152602001600020905082816002019081610a059190612047565b5081816003019081610a179190612047565b50338160000160006101000a81548173ffffffffffffffffffffffffffffffffffffffff021916908373ffffffffffffffffffffffffffffffffffffffff16021790555060008160040160006101000a81548160ff02191690831515021790555060015481600101819055504281600501819055507fc73b5bb33fb601eeec75daf49de95251edc92969aa0758933778a7b8089d7765336001548585600042604051610ac896959493929190612137565b60405180910390a160016000815480929190610ae390611dc1565b919050555060008060009054906101000a900473ffffffffffffffffffffffffffffffffffffffff1673ffffffffffffffffffffffffffffffffffffffff1634604051610b2f906121d7565b60006040518083038185875af1925050503d8060008114610b6c576040519150601f19603f3d011682016040523d82523d6000602084013e610b71565b606091505b5050905080610bb5576040517f08c379a0000000000000000000000000000000000000000000000000000000008152600401610bac90612238565b60405180910390fd5b50505050565b60008054906101000a900473ffffffffffffffffffffffffffffffffffffffff1681565b6060600060015467ffffffffffffffff811115610bff57610bfe61190b565b5b604051908082528060200260200182016040528015610c3857816020015b610c2561150b565b815260200190600190039081610c1d5790505b5090506000805b600154811015610eed57600015156002600083815260200190815260200160002060040160009054906101000a900460ff161515148015610ce157503373ffffffffffffffffffffffffffffffffffffffff166002600083815260200190815260200160002060000160009054906101000a900473ffffffffffffffffffffffffffffffffffffffff1673ffffffffffffffffffffffffffffffffffffffff16145b15610eda57600260008281526020019081526020016000206040518060c00160405290816000820160009054906101000a900473ffffffffffffffffffffffffffffffffffffffff1673ffffffffffffffffffffffffffffffffffffffff1673ffffffffffffffffffffffffffffffffffffffff16815260200160018201548152602001600282018054610d7490611d32565b80601f0160208091040260200160405190810160405280929190818152602001828054610da090611d32565b8015610ded5780601f10610dc257610100808354040283529160200191610ded565b820191906000526020600020905b815481529060010190602001808311610dd057829003601f168201915b50505050508152602001600382018054610e0690611d32565b80601f0160208091040260200160405190810160405280929190818152602001828054610e3290611d32565b8015610e7f5780601f10610e5457610100808354040283529160200191610e7f565b820191906000526020600020905b815481529060010190602001808311610e6257829003601f168201915b505050505081526020016004820160009054906101000a900460ff16151515158152602001600582015481525050838381518110610ec057610ebf611d63565b5b60200260200101819052508180610ed690611dc1565b9250505b8080610ee590611dc1565b915050610c3f565b5060008167ffffffffffffffff811115610f0a57610f0961190b565b5b604051908082528060200260200182016040528015610f4357816020015b610f3061150b565b815260200190600190039081610f285790505b50905060005b8281101561114957600260008281526020019081526020016000206040518060c00160405290816000820160009054906101000a900473ffffffffffffffffffffffffffffffffffffffff1673ffffffffffffffffffffffffffffffffffffffff1673ffffffffffffffffffffffffffffffffffffffff16815260200160018201548152602001600282018054610fdf90611d32565b80601f016020809104026020016040519081016040528092919081815260200182805461100b90611d32565b80156110585780601f1061102d57610100808354040283529160200191611058565b820191906000526020600020905b81548152906001019060200180831161103b57829003601f168201915b5050505050815260200160038201805461107190611d32565b80601f016020809104026020016040519081016040528092919081815260200182805461109d90611d32565b80156110ea5780601f106110bf576101008083540402835291602001916110ea565b820191906000526020600020905b8154815290600101906020018083116110cd57829003601f168201915b505050505081526020016004820160009054906101000a900460ff1615151515815260200160058201548152505082828151811061112b5761112a611d63565b5b6020026020010181905250808061114190611dc1565b915050610f49565b5080935050505090565b6000600360003373ffffffffffffffffffffffffffffffffffffffff1673ffffffffffffffffffffffffffffffffffffffff1681526020019081526020016000209050848160000190816111a79190612047565b50838160010190816111b99190612047565b50828160020190816111cb9190612047565b50818160030190816111dd9190612047565b505050505050565b60608060006001548410806111fb575060015484115b61123a576040517f08c379a0000000000000000000000000000000000000000000000000000000008152600401611231906122a4565b60405180910390fd5b6000600260008681526020019081526020016000209050600015158160040160009054906101000a900460ff161515146112a9576040517f08c379a00000000000000000000000000000000000000000000000000000000081526004016112a090612310565b60405180910390fd5b80600201816003018260000160009054906101000a900473ffffffffffffffffffffffffffffffffffffffff168280546112e290611d32565b80601f016020809104026020016040519081016040528092919081815260200182805461130e90611d32565b801561135b5780601f106113305761010080835404028352916020019161135b565b820191906000526020600020905b81548152906001019060200180831161133e57829003601f168201915b5050505050925081805461136e90611d32565b80601f016020809104026020016040519081016040528092919081815260200182805461139a90611d32565b80156113e75780601f106113bc576101008083540402835291602001916113e7565b820191906000526020600020905b8154815290600101906020018083116113ca57829003601f168201915b50505050509150935093509350509193909250565b3373ffffffffffffffffffffffffffffffffffffffff166002600084815260200190815260200160002060000160009054906101000a900473ffffffffffffffffffffffffffffffffffffffff1673ffffffffffffffffffffffffffffffffffffffff16146114a0576040517f08c379a0000000000000000000000000000000000000000000000000000000008152600401611497906123a2565b60405180910390fd5b806002600084815260200190815260200160002060040160006101000a81548160ff0219169083151502179055507f90c03fdb3ba756f41c01353982e90798d484dbdcc5571fb39be23b1fee59490a82826040516114ff9291906123c2565b60405180910390a15050565b6040518060c00160405280600073ffffffffffffffffffffffffffffffffffffffff168152602001600081526020016060815260200160608152602001600015158152602001600081525090565b6040518060800160405280606081526020016060815260200160608152602001606081525090565b600081519050919050565b600082825260208201905092915050565b6000819050602082019050919050565b600073ffffffffffffffffffffffffffffffffffffffff82169050919050565b60006115d8826115ad565b9050919050565b6115e8816115cd565b82525050565b6000819050919050565b611601816115ee565b82525050565b600081519050919050565b600082825260208201905092915050565b60005b83811015611641578082015181840152602081019050611626565b60008484015250505050565b6000601f19601f8301169050919050565b600061166982611607565b6116738185611612565b9350611683818560208601611623565b61168c8161164d565b840191505092915050565b60008115159050919050565b6116ac81611697565b82525050565b600060c0830160008301516116ca60008601826115df565b5060208301516116dd60208601826115f8565b50604083015184820360408601526116f5828261165e565b9150506060830151848203606086015261170f828261165e565b915050608083015161172460808601826116a3565b5060a083015161173760a08601826115f8565b508091505092915050565b600061174e83836116b2565b905092915050565b6000602082019050919050565b600061176e82611581565b611778818561158c565b93508360208202850161178a8561159d565b8060005b858110156117c657848403895281516117a78582611742565b94506117b283611756565b925060208a0199505060018101905061178e565b50829750879550505050505092915050565b600060208201905081810360008301526117f28184611763565b905092915050565b6000604051905090565b600080fd5b600080fd5b611817816115cd565b811461182257600080fd5b50565b6000813590506118348161180e565b92915050565b6000602082840312156118505761184f611804565b5b600061185e84828501611825565b91505092915050565b60006080830160008301518482036000860152611884828261165e565b9150506020830151848203602086015261189e828261165e565b915050604083015184820360408601526118b8828261165e565b915050606083015184820360608601526118d2828261165e565b9150508091505092915050565b600060208201905081810360008301526118f98184611867565b905092915050565b600080fd5b600080fd5b7f4e487b7100000000000000000000000000000000000000000000000000000000600052604160045260246000fd5b6119438261164d565b810181811067ffffffffffffffff821117156119625761196161190b565b5b80604052505050565b60006119756117fa565b9050611981828261193a565b919050565b600067ffffffffffffffff8211156119a1576119a061190b565b5b6119aa8261164d565b9050602081019050919050565b82818337600083830152505050565b60006119d96119d484611986565b61196b565b9050828152602081018484840111156119f5576119f4611906565b5b611a008482856119b7565b509392505050565b600082601f830112611a1d57611a1c611901565b5b8135611a2d8482602086016119c6565b91505092915050565b60008060408385031215611a4d57611a4c611804565b5b600083013567ffffffffffffffff811115611a6b57611a6a611809565b5b611a7785828601611a08565b925050602083013567ffffffffffffffff811115611a9857611a97611809565b5b611aa485828601611a08565b9150509250929050565b611ab7816115cd565b82525050565b6000602082019050611ad26000830184611aae565b92915050565b60008060008060808587031215611af257611af1611804565b5b600085013567ffffffffffffffff811115611b1057611b0f611809565b5b611b1c87828801611a08565b945050602085013567ffffffffffffffff811115611b3d57611b3c611809565b5b611b4987828801611a08565b935050604085013567ffffffffffffffff811115611b6a57611b69611809565b5b611b7687828801611a08565b925050606085013567ffffffffffffffff811115611b9757611b96611809565b5b611ba387828801611a08565b91505092959194509250565b611bb8816115ee565b8114611bc357600080fd5b50565b600081359050611bd581611baf565b92915050565b600060208284031215611bf157611bf0611804565b5b6000611bff84828501611bc6565b91505092915050565b600082825260208201905092915050565b6000611c2482611607565b611c2e8185611c08565b9350611c3e818560208601611623565b611c478161164d565b840191505092915050565b60006060820190508181036000830152611c6c8186611c19565b90508181036020830152611c808185611c19565b9050611c8f6040830184611aae565b949350505050565b611ca081611697565b8114611cab57600080fd5b50565b600081359050611cbd81611c97565b92915050565b60008060408385031215611cda57611cd9611804565b5b6000611ce885828601611bc6565b9250506020611cf985828601611cae565b9150509250929050565b7f4e487b7100000000000000000000000000000000000000000000000000000000600052602260045260246000fd5b60006002820490506001821680611d4a57607f821691505b602082108103611d5d57611d5c611d03565b5b50919050565b7f4e487b7100000000000000000000000000000000000000000000000000000000600052603260045260246000fd5b7f4e487b7100000000000000000000000000000000000000000000000000000000600052601160045260246000fd5b6000611dcc826115ee565b91507fffffffffffffffffffffffffffffffffffffffffffffffffffffffffffffffff8203611dfe57611dfd611d92565b5b600182019050919050565b7f302e3031204d4154494320697320726571756972656420746f20706f7374206160008201527f2054776565740000000000000000000000000000000000000000000000000000602082015250565b6000611e65602683611c08565b9150611e7082611e09565b604082019050919050565b60006020820190508181036000830152611e9481611e58565b9050919050565b60008190508160005260206000209050919050565b60006020601f8301049050919050565b600082821b905092915050565b600060088302611efd7fffffffffffffffffffffffffffffffffffffffffffffffffffffffffffffffff82611ec0565b611f078683611ec0565b95508019841693508086168417925050509392505050565b6000819050919050565b6000611f44611f3f611f3a846115ee565b611f1f565b6115ee565b9050919050565b6000819050919050565b611f5e83611f29565b611f72611f6a82611f4b565b848454611ecd565b825550505050565b600090565b611f87611f7a565b611f92818484611f55565b505050565b5b81811015611fb657611fab600082611f7f565b600181019050611f98565b5050565b601f821115611ffb57611fcc81611e9b565b611fd584611eb0565b81016020851015611fe4578190505b611ff8611ff085611eb0565b830182611f97565b50505b505050565b600082821c905092915050565b600061201e60001984600802612000565b1980831691505092915050565b6000612037838361200d565b9150826002028217905092915050565b61205082611607565b67ffffffffffffffff8111156120695761206861190b565b5b6120738254611d32565b61207e828285611fba565b600060209050601f8311600181146120b1576000841561209f578287015190505b6120a9858261202b565b865550612111565b601f1984166120bf86611e9b565b60005b828110156120e7578489015182556001820191506020850194506020810190506120c2565b868310156121045784890151612100601f89168261200d565b8355505b6001600288020188555050505b505050505050565b612122816115ee565b82525050565b61213181611697565b82525050565b600060c08201905061214c6000830189611aae565b6121596020830188612119565b818103604083015261216b8187611c19565b9050818103606083015261217f8186611c19565b905061218e6080830185612128565b61219b60a0830184612119565b979650505050505050565b600081905092915050565b50565b60006121c16000836121a6565b91506121cc826121b1565b600082019050919050565b60006121e2826121b4565b9150819050919050565b7f4661696c656420746f2073656e64204574686572000000000000000000000000600082015250565b6000612222601483611c08565b915061222d826121ec565b602082019050919050565b6000602082019050818103600083015261225181612215565b9050919050565b7f4e6f207375636820747765657420657869737473212100000000000000000000600082015250565b600061228e601683611c08565b915061229982612258565b602082019050919050565b600060208201905081810360008301526122bd81612281565b9050919050565b7f547765657420686173206265656e2064656c6574656421210000000000000000600082015250565b60006122fa601883611c08565b9150612305826122c4565b602082019050919050565b60006020820190508181036000830152612329816122ed565b9050919050565b7f5477656574206f776e65722063616e206f6e6c792064656c657465206120547760008201527f6565742121000000000000000000000000000000000000000000000000000000602082015250565b600061238c602583611c08565b915061239782612330565b604082019050919050565b600060208201905081810360008301526123bb8161237f565b9050919050565b60006040820190506123d76000830185612119565b6123e46020830184612128565b939250505056fea2646970667358221220c8d139f3bd16f75a01cbef6d14e9f4e594becfe3a398df90b47e5ea0332581f464736f6c63430008120033",
  "linkReferences": {},
  "deployedLinkReferences": {}
}